{
  "_format": "hh-sol-artifact-1",
  "contractName": "SongOrAlbumNFT",
  "sourceName": "contracts/SongOrAlbumNFT.sol",
  "abi": [
    {
      "inputs": [
        {
          "internalType": "string",
          "name": "uri_",
          "type": "string"
        },
        {
          "internalType": "uint256",
          "name": "_hashtuneShare",
          "type": "uint256"
        },
        {
          "internalType": "uint256",
          "name": "_artistRoyalty",
          "type": "uint256"
        }
      ],
      "stateMutability": "nonpayable",
      "type": "constructor"
    },
    {
      "anonymous": false,
      "inputs": [
        {
          "indexed": true,
          "internalType": "address",
          "name": "account",
          "type": "address"
        },
        {
          "indexed": true,
          "internalType": "address",
          "name": "operator",
          "type": "address"
        },
        {
          "indexed": false,
          "internalType": "bool",
          "name": "approved",
          "type": "bool"
        }
      ],
      "name": "ApprovalForAll",
      "type": "event"
    },
    {
      "anonymous": false,
      "inputs": [
        {
          "indexed": false,
          "internalType": "uint256",
          "name": "tokenId",
          "type": "uint256"
        },
        {
          "indexed": false,
          "internalType": "uint256",
          "name": "auctionNum",
          "type": "uint256"
        },
        {
          "indexed": false,
          "internalType": "address",
          "name": "newOwner",
          "type": "address"
        },
        {
          "indexed": false,
          "internalType": "uint256",
          "name": "soldFor",
          "type": "uint256"
        }
      ],
      "name": "EndAuction",
      "type": "event"
    },
    {
      "anonymous": false,
      "inputs": [
        {
          "indexed": false,
          "internalType": "uint256",
          "name": "tokenId",
          "type": "uint256"
        },
        {
          "indexed": false,
          "internalType": "uint256",
          "name": "auctionNum",
          "type": "uint256"
        },
        {
          "indexed": false,
          "internalType": "uint256",
          "name": "reservePrice",
          "type": "uint256"
        },
        {
          "indexed": false,
          "internalType": "uint256",
          "name": "endTime",
          "type": "uint256"
        }
      ],
      "name": "NewAuction",
      "type": "event"
    },
    {
      "anonymous": false,
      "inputs": [
        {
          "indexed": false,
          "internalType": "address",
          "name": "by",
          "type": "address"
        },
        {
          "indexed": false,
          "internalType": "uint256",
          "name": "tokenId",
          "type": "uint256"
        },
        {
          "indexed": false,
          "internalType": "uint256",
          "name": "amount",
          "type": "uint256"
        }
      ],
      "name": "NewBid",
      "type": "event"
    },
    {
      "anonymous": false,
      "inputs": [
        {
          "indexed": false,
          "internalType": "address",
          "name": "setBy",
          "type": "address"
        },
        {
          "indexed": false,
          "internalType": "uint256",
          "name": "newPrice",
          "type": "uint256"
        },
        {
          "indexed": false,
          "internalType": "uint256",
          "name": "tokenId",
          "type": "uint256"
        }
      ],
      "name": "NewPrice",
      "type": "event"
    },
    {
      "anonymous": false,
      "inputs": [
        {
          "indexed": false,
          "internalType": "address",
          "name": "setBy",
          "type": "address"
        },
        {
          "indexed": false,
          "internalType": "string",
          "name": "newAddress",
          "type": "string"
        }
      ],
      "name": "NewURI",
      "type": "event"
    },
    {
      "anonymous": false,
      "inputs": [
        {
          "indexed": true,
          "internalType": "address",
          "name": "previousOwner",
          "type": "address"
        },
        {
          "indexed": true,
          "internalType": "address",
          "name": "newOwner",
          "type": "address"
        }
      ],
      "name": "OwnershipTransferred",
      "type": "event"
    },
    {
      "anonymous": false,
      "inputs": [
        {
          "indexed": false,
          "internalType": "address",
          "name": "to",
          "type": "address"
        },
        {
          "indexed": false,
          "internalType": "uint256",
          "name": "amount",
          "type": "uint256"
        }
      ],
      "name": "PayoutOccurred",
      "type": "event"
    },
    {
      "anonymous": false,
      "inputs": [
        {
          "indexed": true,
          "internalType": "bytes32",
          "name": "role",
          "type": "bytes32"
        },
        {
          "indexed": true,
          "internalType": "bytes32",
          "name": "previousAdminRole",
          "type": "bytes32"
        },
        {
          "indexed": true,
          "internalType": "bytes32",
          "name": "newAdminRole",
          "type": "bytes32"
        }
      ],
      "name": "RoleAdminChanged",
      "type": "event"
    },
    {
      "anonymous": false,
      "inputs": [
        {
          "indexed": true,
          "internalType": "bytes32",
          "name": "role",
          "type": "bytes32"
        },
        {
          "indexed": true,
          "internalType": "address",
          "name": "account",
          "type": "address"
        },
        {
          "indexed": true,
          "internalType": "address",
          "name": "sender",
          "type": "address"
        }
      ],
      "name": "RoleGranted",
      "type": "event"
    },
    {
      "anonymous": false,
      "inputs": [
        {
          "indexed": true,
          "internalType": "bytes32",
          "name": "role",
          "type": "bytes32"
        },
        {
          "indexed": true,
          "internalType": "address",
          "name": "account",
          "type": "address"
        },
        {
          "indexed": true,
          "internalType": "address",
          "name": "sender",
          "type": "address"
        }
      ],
      "name": "RoleRevoked",
      "type": "event"
    },
    {
      "anonymous": false,
      "inputs": [
        {
          "indexed": false,
          "internalType": "address",
          "name": "by",
          "type": "address"
        },
        {
          "indexed": false,
          "internalType": "uint256",
          "name": "tokenId",
          "type": "uint256"
        },
        {
          "indexed": false,
          "internalType": "address[]",
          "name": "creators",
          "type": "address[]"
        },
        {
          "indexed": false,
          "internalType": "uint256[]",
          "name": "creatorsShare",
          "type": "uint256[]"
        },
        {
          "indexed": false,
          "internalType": "enum DataModel.ArtStatus",
          "name": "status",
          "type": "uint8"
        },
        {
          "indexed": false,
          "internalType": "bytes32",
          "name": "digest",
          "type": "bytes32"
        },
        {
          "indexed": false,
          "internalType": "uint8",
          "name": "hashFunction",
          "type": "uint8"
        },
        {
          "indexed": false,
          "internalType": "uint8",
          "name": "size",
          "type": "uint8"
        }
      ],
      "name": "TokenCreated",
      "type": "event"
    },
    {
      "anonymous": false,
      "inputs": [
        {
          "indexed": false,
          "internalType": "address",
          "name": "by",
          "type": "address"
        },
        {
          "indexed": false,
          "internalType": "uint256",
          "name": "tokenId",
          "type": "uint256"
        }
      ],
      "name": "TokenPurchased",
      "type": "event"
    },
    {
      "anonymous": false,
      "inputs": [
        {
          "indexed": true,
          "internalType": "address",
          "name": "operator",
          "type": "address"
        },
        {
          "indexed": true,
          "internalType": "address",
          "name": "from",
          "type": "address"
        },
        {
          "indexed": true,
          "internalType": "address",
          "name": "to",
          "type": "address"
        },
        {
          "indexed": false,
          "internalType": "uint256[]",
          "name": "ids",
          "type": "uint256[]"
        },
        {
          "indexed": false,
          "internalType": "uint256[]",
          "name": "values",
          "type": "uint256[]"
        }
      ],
      "name": "TransferBatch",
      "type": "event"
    },
    {
      "anonymous": false,
      "inputs": [
        {
          "indexed": true,
          "internalType": "address",
          "name": "operator",
          "type": "address"
        },
        {
          "indexed": true,
          "internalType": "address",
          "name": "from",
          "type": "address"
        },
        {
          "indexed": true,
          "internalType": "address",
          "name": "to",
          "type": "address"
        },
        {
          "indexed": false,
          "internalType": "uint256",
          "name": "id",
          "type": "uint256"
        },
        {
          "indexed": false,
          "internalType": "uint256",
          "name": "value",
          "type": "uint256"
        }
      ],
      "name": "TransferSingle",
      "type": "event"
    },
    {
      "anonymous": false,
      "inputs": [
        {
          "indexed": false,
          "internalType": "string",
          "name": "value",
          "type": "string"
        },
        {
          "indexed": true,
          "internalType": "uint256",
          "name": "id",
          "type": "uint256"
        }
      ],
      "name": "URI",
      "type": "event"
    },
    {
      "anonymous": false,
      "inputs": [
        {
          "indexed": false,
          "internalType": "address",
          "name": "receiver",
          "type": "address"
        },
        {
          "indexed": false,
          "internalType": "uint256",
          "name": "withdrawnAmount",
          "type": "uint256"
        }
      ],
      "name": "WithdrawMoney",
      "type": "event"
    },
    {
      "inputs": [],
      "name": "DEFAULT_ADMIN_ROLE",
      "outputs": [
        {
          "internalType": "bytes32",
          "name": "",
          "type": "bytes32"
        }
      ],
      "stateMutability": "view",
      "type": "function"
    },
    {
      "inputs": [
        {
          "internalType": "uint256",
          "name": "",
          "type": "uint256"
        }
      ],
      "name": "_listings",
      "outputs": [
        {
          "internalType": "bool",
          "name": "",
          "type": "bool"
        }
      ],
      "stateMutability": "view",
      "type": "function"
    },
    {
      "inputs": [
        {
          "internalType": "uint256",
          "name": "",
          "type": "uint256"
        }
      ],
      "name": "_prices",
      "outputs": [
        {
          "internalType": "uint256",
          "name": "",
          "type": "uint256"
        }
      ],
      "stateMutability": "view",
      "type": "function"
    },
    {
      "inputs": [
        {
          "internalType": "uint256",
          "name": "",
          "type": "uint256"
        }
      ],
      "name": "arts",
      "outputs": [
        {
          "internalType": "enum DataModel.ArtStatus",
          "name": "status",
          "type": "uint8"
        },
        {
          "internalType": "address",
          "name": "currentOwner",
          "type": "address"
        },
        {
          "internalType": "uint256",
          "name": "salePrice",
          "type": "uint256"
        },
        {
          "components": [
            {
              "internalType": "bytes32",
              "name": "digest",
              "type": "bytes32"
            },
            {
              "internalType": "uint8",
              "name": "hashFunction",
              "type": "uint8"
            },
            {
              "internalType": "uint8",
              "name": "size",
              "type": "uint8"
            }
          ],
          "internalType": "struct DataModel.MultiHash",
          "name": "metaData",
          "type": "tuple"
        }
      ],
      "stateMutability": "view",
      "type": "function"
    },
    {
      "inputs": [
        {
          "internalType": "address",
          "name": "account",
          "type": "address"
        },
        {
          "internalType": "uint256",
          "name": "id",
          "type": "uint256"
        }
      ],
      "name": "balanceOf",
      "outputs": [
        {
          "internalType": "uint256",
          "name": "",
          "type": "uint256"
        }
      ],
      "stateMutability": "view",
      "type": "function"
    },
    {
      "inputs": [
        {
          "internalType": "address[]",
          "name": "accounts",
          "type": "address[]"
        },
        {
          "internalType": "uint256[]",
          "name": "ids",
          "type": "uint256[]"
        }
      ],
      "name": "balanceOfBatch",
      "outputs": [
        {
          "internalType": "uint256[]",
          "name": "",
          "type": "uint256[]"
        }
      ],
      "stateMutability": "view",
      "type": "function"
    },
    {
      "inputs": [
        {
          "internalType": "address",
          "name": "",
          "type": "address"
        },
        {
          "internalType": "uint256",
          "name": "",
          "type": "uint256"
        },
        {
          "internalType": "uint256",
          "name": "",
          "type": "uint256"
        }
      ],
      "name": "bidMoneyPool",
      "outputs": [
        {
          "internalType": "uint256",
          "name": "",
          "type": "uint256"
        }
      ],
      "stateMutability": "view",
      "type": "function"
    },
    {
      "inputs": [
        {
          "internalType": "uint256",
          "name": "",
          "type": "uint256"
        },
        {
          "internalType": "uint256",
          "name": "",
          "type": "uint256"
        }
      ],
      "name": "bids",
      "outputs": [
        {
          "internalType": "uint256",
          "name": "currentHigh",
          "type": "uint256"
        },
        {
          "internalType": "address",
          "name": "currentHighBider",
          "type": "address"
        },
        {
          "internalType": "uint256",
          "name": "endTime",
          "type": "uint256"
        },
        {
          "internalType": "uint256",
          "name": "reservePrice",
          "type": "uint256"
        },
        {
          "internalType": "bool",
          "name": "isFinalized",
          "type": "bool"
        }
      ],
      "stateMutability": "view",
      "type": "function"
    },
    {
      "inputs": [
        {
          "internalType": "uint256",
          "name": "tokenId",
          "type": "uint256"
        }
      ],
      "name": "buy",
      "outputs": [],
      "stateMutability": "payable",
      "type": "function"
    },
    {
      "inputs": [
        {
          "internalType": "address[]",
          "name": "creators",
          "type": "address[]"
        },
        {
          "internalType": "uint256[]",
          "name": "creatorsShare",
          "type": "uint256[]"
        },
        {
          "internalType": "enum DataModel.ArtStatus",
          "name": "status",
          "type": "uint8"
        },
        {
          "internalType": "bytes",
          "name": "data",
          "type": "bytes"
        },
        {
          "internalType": "uint256",
          "name": "salePrice",
          "type": "uint256"
        },
        {
          "internalType": "bytes32",
          "name": "digest",
          "type": "bytes32"
        },
        {
          "internalType": "uint8",
          "name": "hashFunction",
          "type": "uint8"
        },
        {
          "internalType": "uint8",
          "name": "size",
          "type": "uint8"
        }
      ],
      "name": "create",
      "outputs": [],
      "stateMutability": "nonpayable",
      "type": "function"
    },
    {
      "inputs": [
        {
          "internalType": "uint256",
          "name": "tokenId",
          "type": "uint256"
        }
      ],
      "name": "endAuction",
      "outputs": [],
      "stateMutability": "nonpayable",
      "type": "function"
    },
    {
      "inputs": [
        {
          "internalType": "uint256",
          "name": "tokenId",
          "type": "uint256"
        }
      ],
      "name": "getCurrentOwner",
      "outputs": [
        {
          "internalType": "address",
          "name": "",
          "type": "address"
        }
      ],
      "stateMutability": "view",
      "type": "function"
    },
    {
      "inputs": [
        {
          "internalType": "bytes32",
          "name": "role",
          "type": "bytes32"
        }
      ],
      "name": "getRoleAdmin",
      "outputs": [
        {
          "internalType": "bytes32",
          "name": "",
          "type": "bytes32"
        }
      ],
      "stateMutability": "view",
      "type": "function"
    },
    {
      "inputs": [
        {
          "internalType": "bytes32",
          "name": "role",
          "type": "bytes32"
        },
        {
          "internalType": "address",
          "name": "account",
          "type": "address"
        }
      ],
      "name": "grantRole",
      "outputs": [],
      "stateMutability": "nonpayable",
      "type": "function"
    },
    {
      "inputs": [
        {
          "internalType": "bytes32",
          "name": "role",
          "type": "bytes32"
        },
        {
          "internalType": "address",
          "name": "account",
          "type": "address"
        }
      ],
      "name": "hasRole",
      "outputs": [
        {
          "internalType": "bool",
          "name": "",
          "type": "bool"
        }
      ],
      "stateMutability": "view",
      "type": "function"
    },
    {
      "inputs": [
        {
          "internalType": "address",
          "name": "account",
          "type": "address"
        },
        {
          "internalType": "address",
          "name": "operator",
          "type": "address"
        }
      ],
      "name": "isApprovedForAll",
      "outputs": [
        {
          "internalType": "bool",
          "name": "",
          "type": "bool"
        }
      ],
      "stateMutability": "view",
      "type": "function"
    },
    {
      "inputs": [],
      "name": "owner",
      "outputs": [
        {
          "internalType": "address",
          "name": "",
          "type": "address"
        }
      ],
      "stateMutability": "view",
      "type": "function"
    },
    {
      "inputs": [
        {
          "internalType": "uint256",
          "name": "tokenId",
          "type": "uint256"
        }
      ],
      "name": "placeBid",
      "outputs": [],
      "stateMutability": "payable",
      "type": "function"
    },
    {
      "inputs": [],
      "name": "renounceOwnership",
      "outputs": [],
      "stateMutability": "nonpayable",
      "type": "function"
    },
    {
      "inputs": [
        {
          "internalType": "bytes32",
          "name": "role",
          "type": "bytes32"
        },
        {
          "internalType": "address",
          "name": "account",
          "type": "address"
        }
      ],
      "name": "renounceRole",
      "outputs": [],
      "stateMutability": "nonpayable",
      "type": "function"
    },
    {
      "inputs": [
        {
          "internalType": "bytes32",
          "name": "role",
          "type": "bytes32"
        },
        {
          "internalType": "address",
          "name": "account",
          "type": "address"
        }
      ],
      "name": "revokeRole",
      "outputs": [],
      "stateMutability": "nonpayable",
      "type": "function"
    },
    {
      "inputs": [
        {
          "internalType": "address",
          "name": "from",
          "type": "address"
        },
        {
          "internalType": "address",
          "name": "to",
          "type": "address"
        },
        {
          "internalType": "uint256[]",
          "name": "ids",
          "type": "uint256[]"
        },
        {
          "internalType": "uint256[]",
          "name": "amounts",
          "type": "uint256[]"
        },
        {
          "internalType": "bytes",
          "name": "data",
          "type": "bytes"
        }
      ],
      "name": "safeBatchTransferFrom",
      "outputs": [],
      "stateMutability": "nonpayable",
      "type": "function"
    },
    {
      "inputs": [
        {
          "internalType": "address",
          "name": "from",
          "type": "address"
        },
        {
          "internalType": "address",
          "name": "to",
          "type": "address"
        },
        {
          "internalType": "uint256",
          "name": "id",
          "type": "uint256"
        },
        {
          "internalType": "uint256",
          "name": "amount",
          "type": "uint256"
        },
        {
          "internalType": "bytes",
          "name": "data",
          "type": "bytes"
        }
      ],
      "name": "safeTransferFrom",
      "outputs": [],
      "stateMutability": "nonpayable",
      "type": "function"
    },
    {
      "inputs": [
        {
          "internalType": "address",
          "name": "operator",
          "type": "address"
        },
        {
          "internalType": "bool",
          "name": "approved",
          "type": "bool"
        }
      ],
      "name": "setApprovalForAll",
      "outputs": [],
      "stateMutability": "nonpayable",
      "type": "function"
    },
    {
      "inputs": [
        {
          "internalType": "address",
          "name": "toApprove",
          "type": "address"
        },
        {
          "internalType": "uint256",
          "name": "tokenId",
          "type": "uint256"
        }
      ],
      "name": "setApprovalToBuy",
      "outputs": [],
      "stateMutability": "nonpayable",
      "type": "function"
    },
    {
      "inputs": [
        {
          "internalType": "uint256",
          "name": "newPrice",
          "type": "uint256"
        },
        {
          "internalType": "uint256",
          "name": "tokenId",
          "type": "uint256"
        }
      ],
      "name": "setCurrentPrice",
      "outputs": [],
      "stateMutability": "nonpayable",
      "type": "function"
    },
    {
      "inputs": [
        {
          "internalType": "string",
          "name": "newuri",
          "type": "string"
        }
      ],
      "name": "setURI",
      "outputs": [],
      "stateMutability": "nonpayable",
      "type": "function"
    },
    {
      "inputs": [
        {
          "internalType": "uint256",
          "name": "id",
          "type": "uint256"
        }
      ],
      "name": "showSalePriceFor",
      "outputs": [
        {
          "internalType": "uint256",
          "name": "",
          "type": "uint256"
        }
      ],
      "stateMutability": "view",
      "type": "function"
    },
    {
      "inputs": [
        {
          "internalType": "uint256",
          "name": "id",
          "type": "uint256"
        }
      ],
      "name": "showURI",
      "outputs": [
        {
          "internalType": "string",
          "name": "",
          "type": "string"
        }
      ],
      "stateMutability": "view",
      "type": "function"
    },
    {
      "inputs": [
        {
          "internalType": "uint256",
          "name": "tokenId",
          "type": "uint256"
        },
        {
          "internalType": "uint256",
          "name": "reservePrice",
          "type": "uint256"
        }
      ],
      "name": "startAuction",
      "outputs": [],
      "stateMutability": "nonpayable",
      "type": "function"
    },
    {
      "inputs": [
        {
          "internalType": "bytes4",
          "name": "interfaceId",
          "type": "bytes4"
        }
      ],
      "name": "supportsInterface",
      "outputs": [
        {
          "internalType": "bool",
          "name": "",
          "type": "bool"
        }
      ],
      "stateMutability": "view",
      "type": "function"
    },
    {
      "inputs": [
        {
          "internalType": "uint256",
          "name": "",
          "type": "uint256"
        }
      ],
      "name": "totalAuctions",
      "outputs": [
        {
          "internalType": "uint256",
          "name": "",
          "type": "uint256"
        }
      ],
      "stateMutability": "view",
      "type": "function"
    },
    {
      "inputs": [
        {
          "internalType": "address",
          "name": "newOwner",
          "type": "address"
        }
      ],
      "name": "transferOwnership",
      "outputs": [],
      "stateMutability": "nonpayable",
      "type": "function"
    },
    {
      "inputs": [
        {
          "internalType": "uint256",
          "name": "",
          "type": "uint256"
        }
      ],
      "name": "uri",
      "outputs": [
        {
          "internalType": "string",
          "name": "",
          "type": "string"
        }
      ],
      "stateMutability": "view",
      "type": "function"
    },
    {
      "inputs": [
        {
          "internalType": "uint256",
          "name": "tokenId",
          "type": "uint256"
        }
      ],
      "name": "withdrawBidMoney",
      "outputs": [],
      "stateMutability": "nonpayable",
      "type": "function"
    }
  ],
  "bytecode": "0x6080604052600260075560026008553480156200001b57600080fd5b5060405162003ee238038062003ee28339810160408190526200003e9162000227565b826200004a81620000a8565b506200005633620000c1565b620000866040518060600160405280602c815260200162003eb6602c9139846200011360201b62001fad1760201c565b600680546001600160a01b0319163317905560079190915560085550620003d4565b8051620000bd90600290602084019062000181565b5050565b600380546001600160a01b038381166001600160a01b0319831681179093556040519116919082907f8be0079c531659141344cd1fd0a4f28419497f9722a3daafe3b4186f6b6457e090600090a35050565b620000bd82826040516024016200012c9291906200031c565b60408051601f198184030181529190526020810180516001600160e01b03908116634b5c427760e01b179091526200016016565b80516a636f6e736f6c652e6c6f67602083016000808483855afa5050505050565b8280546200018f9062000381565b90600052602060002090601f016020900481019282620001b35760008555620001fe565b82601f10620001ce57805160ff1916838001178555620001fe565b82800160010185558215620001fe579182015b82811115620001fe578251825591602001919060010190620001e1565b506200020c92915062000210565b5090565b5b808211156200020c576000815560010162000211565b6000806000606084860312156200023c578283fd5b83516001600160401b038082111562000253578485fd5b818601915086601f83011262000267578485fd5b8151818111156200027c576200027c620003be565b604051601f8201601f19908116603f01168101908382118183101715620002a757620002a7620003be565b81604052828152896020848701011115620002c0578788fd5b620002d38360208301602088016200034e565b6020890151604090990151909a989950979650505050505050565b60008151808452620003088160208601602086016200034e565b601f01601f19169290920160200192915050565b604081526000620003316040830185620002ee565b8281036020840152620003458185620002ee565b95945050505050565b60005b838110156200036b57818101518382015260200162000351565b838111156200037b576000848401525b50505050565b600181811c908216806200039657607f821691505b60208210811415620003b857634e487b7160e01b600052602260045260246000fd5b50919050565b634e487b7160e01b600052604160045260246000fd5b613ad280620003e46000396000f3fe6080604052600436106102035760003560e01c80637ace341b11610118578063b9a2de3a116100a0578063e57a104a1161006f578063e57a104a146106cf578063e985e9c514610758578063f242432a146107a1578063f2fde38b146107c1578063fe776dd0146107e157600080fd5b8063b9a2de3a1461064c578063d547741f1461066c578063d96a094a1461068c578063df76dbc91461069f57600080fd5b80639664d420116100e75780639664d420146105c45780639979ef45146105e4578063a217fddf146105f7578063a22cb4651461060c578063a62a1e3b1461062c57600080fd5b80637ace341b146104a45780637b3c4baa146104f25780638da5cb5b1461058657806391d14854146105a457600080fd5b806336568abe1161019b578063634795701161016a57806363479570146103e45780636ad5b5f514610422578063715018a61461044f578063722906e214610464578063789068b71461048457600080fd5b806336568abe1461034a578063377434901461036a5780634e1273f4146103975780634fee13fc146103c457600080fd5b8063173417b1116101d7578063173417b1146102ba578063248a9ca3146102da5780632eb2c2d61461030a5780632f2ff15d1461032a57600080fd5b8062fdd58e1461020857806301ffc9a71461023b57806302fe53051461026b5780630e89341c1461028d575b600080fd5b34801561021457600080fd5b5061022861022336600461316e565b61080e565b6040519081526020015b60405180910390f35b34801561024757600080fd5b5061025b61025636600461332e565b6108a5565b6040519015158152602001610232565b34801561027757600080fd5b5061028b610286366004613366565b6108b6565b005b34801561029957600080fd5b506102ad6102a83660046132f4565b610925565b60405161023291906136cc565b3480156102c657600080fd5b5061028b6102d53660046132f4565b6109b9565b3480156102e657600080fd5b506102286102f53660046132f4565b60009081526004602052604090206001015490565b34801561031657600080fd5b5061028b61032536600461302b565b610b61565b34801561033657600080fd5b5061028b61034536600461330c565b610bf8565b34801561035657600080fd5b5061028b61036536600461330c565b610c23565b34801561037657600080fd5b506102286103853660046132f4565b60106020526000908152604090205481565b3480156103a357600080fd5b506103b76103b23660046131c9565b610ca1565b604051610232919061363f565b3480156103d057600080fd5b5061028b6103df3660046133b4565b610e03565b3480156103f057600080fd5b506102286103ff366004613197565b600f60209081526000938452604080852082529284528284209052825290205481565b34801561042e57600080fd5b5061022861043d3660046132f4565b6000908152600a602052604090205490565b34801561045b57600080fd5b5061028b611069565b34801561047057600080fd5b5061028b61047f36600461316e565b61109f565b34801561049057600080fd5b5061028b61049f3660046133b4565b61111f565b3480156104b057600080fd5b506104da6104bf3660046132f4565b6000908152600c60205260409020546001600160a01b031690565b6040516001600160a01b039091168152602001610232565b3480156104fe57600080fd5b5061055461050d3660046133b4565b600e6020908152600092835260408084209091529082529020805460018201546002830154600384015460049094015492936001600160a01b039092169290919060ff1685565b604080519586526001600160a01b0390941660208601529284019190915260608301521515608082015260a001610232565b34801561059257600080fd5b506003546001600160a01b03166104da565b3480156105b057600080fd5b5061025b6105bf36600461330c565b611263565b3480156105d057600080fd5b5061028b6105df36600461322a565b61128e565b61028b6105f23660046132f4565b6115a6565b34801561060357600080fd5b50610228600081565b34801561061857600080fd5b5061028b610627366004613134565b611915565b34801561063857600080fd5b506102ad6106473660046132f4565b6119ec565b34801561065857600080fd5b5061028b6106673660046132f4565b6119f7565b34801561067857600080fd5b5061028b61068736600461330c565b611c22565b61028b61069a3660046132f4565b611c48565b3480156106ab57600080fd5b5061025b6106ba3660046132f4565b600d6020526000908152604090205460ff1681565b3480156106db57600080fd5b506107486106ea3660046132f4565b6009602090815260009182526040918290208054600382015484516060810186526004840154815260059093015460ff8181169585019590955261010090819004851695840195909552928116936001600160a01b03910416919084565b6040516102329493929190613680565b34801561076457600080fd5b5061025b610773366004612ff9565b6001600160a01b03918216600090815260016020908152604080832093909416825291909152205460ff1690565b3480156107ad57600080fd5b5061028b6107bc3660046130d1565b611e8e565b3480156107cd57600080fd5b5061028b6107dc366004612fdf565b611f15565b3480156107ed57600080fd5b506102286107fc3660046132f4565b600a6020526000908152604090205481565b60006001600160a01b03831661087f5760405162461bcd60e51b815260206004820152602b60248201527f455243313135353a2062616c616e636520717565727920666f7220746865207a60448201526a65726f206164647265737360a81b60648201526084015b60405180910390fd5b506000908152602081815260408083206001600160a01b03949094168352929052205490565b60006108b082611ff2565b92915050565b6003546001600160a01b031633146108e05760405162461bcd60e51b815260040161087690613827565b7f55a06b409a58d6755d2cc74db303f7f182ee59ae65013a53895acb59169228413382604051610911929190613575565b60405180910390a161092281612017565b50565b60606002805461093490613935565b80601f016020809104026020016040519081016040528092919081815260200182805461096090613935565b80156109ad5780601f10610982576101008083540402835291602001916109ad565b820191906000526020600020905b81548152906001019060200180831161099057829003601f168201915b50505050509050919050565b600081815260106020908152604080832054338452600f83528184208585528352818420818552835281842054858552600e845282852082865290935290832060040154909260ff9091169082610a225760405162461bcd60e51b81526004016108769061374c565b81610a885760405162461bcd60e51b815260206004820152603060248201527f63616e2774207769746864726177206d6f6e657920756e74696c20746865206160448201526f1d58dd1a5bdb881a185cc8195b99195960821b6064820152608401610876565b610a9385853361202a565b90508015610b0857604051339082156108fc029083906000818181858888f19350505050610b035760405162461bcd60e51b815260206004820152601760248201527f7769746864726177616c20756e7375636365737366756c0000000000000000006044820152606401610876565b610b20565b60405162461bcd60e51b81526004016108769061374c565b60408051338152602081018390527f9fe2db218b58c00ab3556f2be44b2769b37978368c63313d82d78306568e477691015b60405180910390a15050505050565b6001600160a01b038516331480610b7d5750610b7d8533610773565b610be45760405162461bcd60e51b815260206004820152603260248201527f455243313135353a207472616e736665722063616c6c6572206973206e6f74206044820152711bdddb995c881b9bdc88185c1c1c9bdd995960721b6064820152608401610876565b610bf18585858585612119565b5050505050565b600082815260046020526040902060010154610c148133612312565b610c1e8383612376565b505050565b6001600160a01b0381163314610c935760405162461bcd60e51b815260206004820152602f60248201527f416363657373436f6e74726f6c3a2063616e206f6e6c792072656e6f756e636560448201526e103937b632b9903337b91039b2b63360891b6064820152608401610876565b610c9d82826123fc565b5050565b60608151835114610d065760405162461bcd60e51b815260206004820152602960248201527f455243313135353a206163636f756e747320616e6420696473206c656e677468604482015268040dad2e6dac2e8c6d60bb1b6064820152608401610876565b6000835167ffffffffffffffff811115610d3057634e487b7160e01b600052604160045260246000fd5b604051908082528060200260200182016040528015610d59578160200160208202803683370190505b50905060005b8451811015610dfb57610dc0858281518110610d8b57634e487b7160e01b600052603260045260246000fd5b6020026020010151858381518110610db357634e487b7160e01b600052603260045260246000fd5b602002602001015161080e565b828281518110610de057634e487b7160e01b600052603260045260246000fd5b6020908102919091010152610df48161399d565b9050610d5f565b509392505050565b6000828152600c60209081526040808320546010835281842054600e84528285208186529093529220600401546001600160a01b039092169160ff168115610e9e5780610e9e5760405162461bcd60e51b815260206004820152602360248201527f70726576696f75732061756374696f6e206973207374696c6c206f6e20676f6960448201526237339760e91b6064820152608401610876565b6000610ead4262015180613880565b90506001600160a01b0384163314610f1c5760405162461bcd60e51b815260206004820152602c60248201527f63616e2774207374617274207468652061756374696f6e206f66204e4654207960448201526b37ba903237b713ba1037bbb760a11b6064820152608401610876565b60008681526010602052604081208054600191908390610f3d908490613880565b91829055509150508515610fce57428211610faa5760405162461bcd60e51b815260206004820152602760248201527f61756374696f6e20656e6474696d652073686f756c642062652073657420746f6044820152662066757475726560c81b6064820152608401610876565b6000878152600e602090815260408083208484529091529020600201829055610fec565b6000878152600e602090815260408083208484529091528120600201555b6000878152600e6020908152604080832084845282529182902060038101899055888155600401805460ff191690558151898152908101839052908101879052606081018390527fa3e9c29f3df21edd1eb86fe6ed70e85cf557539b86a3e94e33ce37dbe3026ca39060800160405180910390a150505050505050565b6003546001600160a01b031633146110935760405162461bcd60e51b815260040161087690613827565b61109d6000612463565b565b6000818152600c60205260409020546001600160a01b031633146111145760405162461bcd60e51b815260206004820152602660248201527f63616e6e6f742073657420617070726f76616c206966206e6f7420746f6b656e6044820152651037bbb732b960d11b6064820152608401610876565b610c9d826001611915565b60408051338152602081018490529081018290527f19f3e90e27faab71e2bd197abdf6dfccbe19502a4dc6760f2e3339a98d08ca9b9060600160405180910390a16000818152600c60205260409020546001600160a01b031633146111ec5760405162461bcd60e51b815260206004820152603860248201527f63616e6e6f74207365742074686520707269636520666f72206120746f6b656e60448201527f20796f7520646f6e27742063757272656e746c79206f776e00000000000000006064820152608401610876565b600082116112525760405162461bcd60e51b815260206004820152602d60248201527f63616e6e6f742073657420746865206e6577207072696365206f66207468652060448201526c746f6b656e20746f207a65726f60981b6064820152608401610876565b6000908152600a6020526040902055565b60009182526004602090815260408084206001600160a01b0393909316845291905290205460ff1690565b86518851146112ed5760405162461bcd60e51b815260206004820152602560248201527f616c6c2063726561746f7273206d757374206861766520736861726573206465604482015264199a5b995960da1b6064820152608401610876565b6040518060c0016040528087600281111561131857634e487b7160e01b600052602160045260246000fd5b8152602001336001600160a01b0316815260200189815260200188815260200185815260200160405180606001604052808681526020018560ff1681526020018460ff1681525081525060096000600560008154809291906113799061399d565b909155508152602081019190915260400160002081518154829060ff191660018360028111156113b957634e487b7160e01b600052602160045260246000fd5b021790555060208281015182546001600160a01b0390911661010002610100600160a81b0319909116178255604083015180516113fc9260018501920190612d1c565b5060608201518051611418916002840191602090910190612d81565b506080820151600382015560a0909101518051600483015560208101516005928301805460409093015160ff9081166101000261ffff199094169216919091179190911790555461146d9033906001886124b5565b600580543391600c91600091826114838361399d565b91905055815260200190815260200160002060006101000a8154816001600160a01b0302191690836001600160a01b031602179055508560028111156114d957634e487b7160e01b600052602160045260246000fd5b60ff166001141561153457600084116115345760405162461bcd60e51b815260206004820152601e60248201527f50726963652073686f756c642062652067726561746572207468616e203000006044820152606401610876565b85600281111561155457634e487b7160e01b600052602160045260246000fd5b507f565a38a133154a95992e1a08d307cb27c5f9fefbb6bd175c7e7570373979f978336005548a8a8a888888604051611594989796959493929190613599565b60405180910390a15050505050505050565b600081815260106020908152604080832054338452600f835281842085855283528184208185529092528220549091906115e09034613880565b6000848152600e60209081526040808320868452909152902060028101546004909101549192509060ff1680156116595760405162461bcd60e51b815260206004820152601e60248201527f61756374696f6e20697320636c6f73656420666f722074686973204e465400006044820152606401610876565b600084116116a95760405162461bcd60e51b815260206004820152601f60248201527f6e6f206f6e676f696e672061756374696f6e20666f722074686973204e4654006044820152606401610876565b8115806116b557508142105b1561188d57600034116117165760405162461bcd60e51b815260206004820152602360248201527f62696420616d6f756e742073686f756c642062652067726561746f722074686160448201526206e20360ec1b6064820152608401610876565b6000858152600e60209081526040808320878452909152902060030154831161179c5760405162461bcd60e51b815260206004820152603260248201527f62696420616d6f756e742073686f756c642062652067726561746f72207468616044820152716e207468652072657365727665507269636560701b6064820152608401610876565b6000858152600e6020908152604080832087845290915290205483116118225760405162461bcd60e51b815260206004820152603560248201527f62696420616d6f756e742073686f756c642062652067726561746f72207468616044820152741b881d1a194818dd5c9c995b9d081a1a59da195cdd605a1b6064820152608401610876565b336000908152600f60209081526040808320888452825280832087845290915281208054349290611854908490613880565b90915550506000858152600e60209081526040808320878452909152902083815560010180546001600160a01b031916331790556118d5565b60405162461bcd60e51b815260206004820152601e60248201527f61756374696f6e20697320636c6f73656420666f722074686973204e465400006044820152606401610876565b604080513381526020810187905234918101919091527f87f5b2fe112bf269d30fb8ca9dc0bde0afd0cc39258e13fafd75fe794795bf0e90606001610b52565b336001600160a01b03831614156119805760405162461bcd60e51b815260206004820152602960248201527f455243313135353a2073657474696e6720617070726f76616c20737461747573604482015268103337b91039b2b63360b91b6064820152608401610876565b3360008181526001602090815260408083206001600160a01b03871680855290835292819020805460ff191686151590811790915590519081529192917f17307eab39ab6107e8899845ad3d59bd9653f200f220920489ca2b5937696c31910160405180910390a35050565b60606108b082610925565b600081815260106020908152604080832054600c909252909120546001600160a01b03163314611a7b5760405162461bcd60e51b815260206004820152602960248201527f6f6e6c79206f776e6572206f6620746865204e46542063616e20656e64207468604482015268329030bab1ba34b7b760b91b6064820152608401610876565b6000828152600e60209081526040808320848452909152902060020154606090611ae7576000838152600c6020908152604080832054600e8352818420868552909252909120600190810154611ae2926001600160a01b0390811692911690869085611e8e565b611ba1565b6000838152600e602090815260408083208584529091529020600201544211611b5e5760405162461bcd60e51b8152602060048201526024808201527f63616e607420656e64206f6e676f696e672074696d65206261736564206175636044820152633a34b7b760e11b6064820152608401610876565b6000838152600c6020908152604080832054600e8352818420868552909252909120600190810154611ba1926001600160a01b0390811692911690869085611e8e565b6000838152600e60209081526040808320858452825291829020600481018054600160ff199091168117909155810154905483518781529283018690526001600160a01b0390911682840152606082015290517eb49753920e35e36dba724b8bc7a555d1d4cf6a0e6460ee871751325beae12c9181900360800190a1505050565b600082815260046020526040902060010154611c3e8133612312565b610c1e83836123fc565b60408051338152602081018390527f55c18555197c6574627cf460c66073d10aa05d412468800b7b71feeaf82ea92d910160405180910390a16000818152600a6020526040902054348114611cd75760405162461bcd60e51b81526020600482015260156024820152741a5b98dbdc9c9958dd08185b5bdd5b9d081cd95b9d605a1b6044820152606401610876565b3315801590611ce65750333014155b611d325760405162461bcd60e51b815260206004820152601960248201527f63616e6e6f742062757920796f7572206f776e20746f6b656e000000000000006044820152606401610876565b60006064611d413460026138b8565b611d4b9190613898565b6000848152600b60205260408120549192505b81811015611dc6576000858152600b602052604090208054611db4919083908110611d9957634e487b7160e01b600052603260045260246000fd5b6000918252602090912001546001600160a01b0316846125bf565b80611dbe8161399d565b915050611d5e565b5060006064611dd63460026138b8565b611de09190613898565b600654909150611df9906001600160a01b0316826125bf565b600081611e0684866138b8565b611e1090346138d7565b611e1a91906138d7565b6000878152600c6020526040902054909150611e3f906001600160a01b0316826125bf565b6000868152600c6020526040902054606090611e68906001600160a01b03163389600185611e8e565b50505060009384525050600c602052506040902080546001600160a01b03191633179055565b6001600160a01b038516331480611eaa5750611eaa8533610773565b611f085760405162461bcd60e51b815260206004820152602960248201527f455243313135353a2063616c6c6572206973206e6f74206f776e6572206e6f7260448201526808185c1c1c9bdd995960ba1b6064820152608401610876565b610bf18585858585612717565b6003546001600160a01b03163314611f3f5760405162461bcd60e51b815260040161087690613827565b6001600160a01b038116611fa45760405162461bcd60e51b815260206004820152602660248201527f4f776e61626c653a206e6577206f776e657220697320746865207a65726f206160448201526564647265737360d01b6064820152608401610876565b61092281612463565b610c9d8282604051602401611fc39291906136df565b60408051601f198184030181529190526020810180516001600160e01b0316634b5c427760e01b179052612834565b60006001600160e01b03198216637965db0b60e01b14806108b057506108b082612855565b8051610c9d906002906020840190612dbc565b600080831161208e5760405162461bcd60e51b815260206004820152602a60248201527f6e6f2070726576696f75732061756374696f6e732068617070656e656420666f6044820152691c881d1a1a5cc813919560b21b6064820152608401610876565b600060015b848111612110576001600160a01b0384166000908152600f6020908152604080832089845282528083208484529091529020546120d09083613880565b6001600160a01b0385166000908152600f602090815260408083208a845282528083208584529091528120559150806121088161399d565b915050612093565b50949350505050565b815183511461217b5760405162461bcd60e51b815260206004820152602860248201527f455243313135353a2069647320616e6420616d6f756e7473206c656e677468206044820152670dad2e6dac2e8c6d60c31b6064820152608401610876565b6001600160a01b0384166121a15760405162461bcd60e51b815260040161087690613798565b3360005b84518110156122a45760008582815181106121d057634e487b7160e01b600052603260045260246000fd5b6020026020010151905060008583815181106121fc57634e487b7160e01b600052603260045260246000fd5b602090810291909101810151600084815280835260408082206001600160a01b038e16835290935291909120549091508181101561224c5760405162461bcd60e51b8152600401610876906137dd565b6000838152602081815260408083206001600160a01b038e8116855292528083208585039055908b16825281208054849290612289908490613880565b925050819055505050508061229d9061399d565b90506121a5565b50846001600160a01b0316866001600160a01b0316826001600160a01b03167f4a39dc06d4c0dbc64b70af90fd698a233a518aa5d07e595d983b8c0526c8f7fb87876040516122f4929190613652565b60405180910390a461230a8187878787876128a5565b505050505050565b61231c8282611263565b610c9d57612334816001600160a01b03166014612a10565b61233f836020612a10565b60405160200161235092919061345d565b60408051601f198184030181529082905262461bcd60e51b8252610876916004016136cc565b6123808282611263565b610c9d5760008281526004602090815260408083206001600160a01b03851684529091529020805460ff191660011790556123b83390565b6001600160a01b0316816001600160a01b0316837f2f8788117e7eff1d82e926ec794901d17c78024a50270940304540a733656f0d60405160405180910390a45050565b6124068282611263565b15610c9d5760008281526004602090815260408083206001600160a01b0385168085529252808320805460ff1916905551339285917ff6391f5c32d9c69d2a47ea670b442974b53935d1edc7fd64eb21e047a839171b9190a45050565b600380546001600160a01b038381166001600160a01b0319831681179093556040519116919082907f8be0079c531659141344cd1fd0a4f28419497f9722a3daafe3b4186f6b6457e090600090a35050565b6001600160a01b0384166125155760405162461bcd60e51b815260206004820152602160248201527f455243313135353a206d696e7420746f20746865207a65726f206164647265736044820152607360f81b6064820152608401610876565b3361252f8160008761252688612bf9565b610bf188612bf9565b6000848152602081815260408083206001600160a01b03891684529091528120805485929061255f908490613880565b909155505060408051858152602081018590526001600160a01b0380881692600092918516917fc3d58168c5ae7397731d063d5bbf3d657854427343f4c083240f7aacaa2d0f62910160405180910390a4610bf181600087878787612c52565b604080516001600160a01b0384168152602081018390527f93f3776c20684a239ac96b909fc761dd3c61069d0a9d27324b723613f1741205910160405180910390a16001600160a01b0382161580159061262257506001600160a01b0382163014155b6126795760405162461bcd60e51b815260206004820152602260248201527f726563656976657220697320636f6e74726163742061646472657373206f776e60448201526132b960f11b6064820152608401610876565b6000811180156126895750478111155b6126e15760405162461bcd60e51b8152602060048201526024808201527f616d6f756e74206973206c657373207468616e20636f6e74726163742062616c604482015263616e636560e01b6064820152608401610876565b6040516001600160a01b0383169082156108fc029083906000818181858888f19350505050158015610c1e573d6000803e3d6000fd5b6001600160a01b03841661273d5760405162461bcd60e51b815260040161087690613798565b3361274d81878761252688612bf9565b6000848152602081815260408083206001600160a01b038a1684529091529020548381101561278e5760405162461bcd60e51b8152600401610876906137dd565b6000858152602081815260408083206001600160a01b038b81168552925280832087850390559088168252812080548692906127cb908490613880565b909155505060408051868152602081018690526001600160a01b03808916928a821692918616917fc3d58168c5ae7397731d063d5bbf3d657854427343f4c083240f7aacaa2d0f62910160405180910390a461282b828888888888612c52565b50505050505050565b80516a636f6e736f6c652e6c6f67602083016000808483855afa5050505050565b60006001600160e01b03198216636cdb3d1360e11b148061288657506001600160e01b031982166303a24d0760e21b145b806108b057506301ffc9a760e01b6001600160e01b03198316146108b0565b6001600160a01b0384163b1561230a5760405163bc197c8160e01b81526001600160a01b0385169063bc197c81906128e990899089908890889088906004016134d2565b602060405180830381600087803b15801561290357600080fd5b505af1925050508015612933575060408051601f3d908101601f191682019092526129309181019061334a565b60015b6129e05761293f6139e4565b806308c379a0141561297957506129546139fc565b8061295f575061297b565b8060405162461bcd60e51b815260040161087691906136cc565b505b60405162461bcd60e51b815260206004820152603460248201527f455243313135353a207472616e7366657220746f206e6f6e20455243313135356044820152732932b1b2b4bb32b91034b6b83632b6b2b73a32b960611b6064820152608401610876565b6001600160e01b0319811663bc197c8160e01b1461282b5760405162461bcd60e51b815260040161087690613704565b60606000612a1f8360026138b8565b612a2a906002613880565b67ffffffffffffffff811115612a5057634e487b7160e01b600052604160045260246000fd5b6040519080825280601f01601f191660200182016040528015612a7a576020820181803683370190505b509050600360fc1b81600081518110612aa357634e487b7160e01b600052603260045260246000fd5b60200101906001600160f81b031916908160001a905350600f60fb1b81600181518110612ae057634e487b7160e01b600052603260045260246000fd5b60200101906001600160f81b031916908160001a9053506000612b048460026138b8565b612b0f906001613880565b90505b6001811115612ba3576f181899199a1a9b1b9c1cb0b131b232b360811b85600f1660108110612b5157634e487b7160e01b600052603260045260246000fd5b1a60f81b828281518110612b7557634e487b7160e01b600052603260045260246000fd5b60200101906001600160f81b031916908160001a90535060049490941c93612b9c8161391e565b9050612b12565b508315612bf25760405162461bcd60e51b815260206004820181905260248201527f537472696e67733a20686578206c656e67746820696e73756666696369656e746044820152606401610876565b9392505050565b60408051600180825281830190925260609160009190602080830190803683370190505090508281600081518110612c4157634e487b7160e01b600052603260045260246000fd5b602090810291909101015292915050565b6001600160a01b0384163b1561230a5760405163f23a6e6160e01b81526001600160a01b0385169063f23a6e6190612c969089908990889088908890600401613530565b602060405180830381600087803b158015612cb057600080fd5b505af1925050508015612ce0575060408051601f3d908101601f19168201909252612cdd9181019061334a565b60015b612cec5761293f6139e4565b6001600160e01b0319811663f23a6e6160e01b1461282b5760405162461bcd60e51b815260040161087690613704565b828054828255906000526020600020908101928215612d71579160200282015b82811115612d7157825182546001600160a01b0319166001600160a01b03909116178255602090920191600190910190612d3c565b50612d7d929150612e2f565b5090565b828054828255906000526020600020908101928215612d71579160200282015b82811115612d71578251825591602001919060010190612da1565b828054612dc890613935565b90600052602060002090601f016020900481019282612dea5760008555612d71565b82601f10612e0357805160ff1916838001178555612d71565b82800160010185558215612d715791820182811115612d71578251825591602001919060010190612da1565b5b80821115612d7d5760008155600101612e30565b600067ffffffffffffffff831115612e5e57612e5e6139ce565b604051612e75601f8501601f191660200182613970565b809150838152848484011115612e8a57600080fd5b83836020830137600060208583010152509392505050565b80356001600160a01b0381168114612eb957600080fd5b919050565b600082601f830112612ece578081fd5b81356020612edb8261385c565b604051612ee88282613970565b8381528281019150858301600585901b87018401881015612f07578586fd5b855b85811015612f2c57612f1a82612ea2565b84529284019290840190600101612f09565b5090979650505050505050565b600082601f830112612f49578081fd5b81356020612f568261385c565b604051612f638282613970565b8381528281019150858301600585901b87018401881015612f82578586fd5b855b85811015612f2c57813584529284019290840190600101612f84565b600082601f830112612fb0578081fd5b612bf283833560208501612e44565b803560038110612eb957600080fd5b803560ff81168114612eb957600080fd5b600060208284031215612ff0578081fd5b612bf282612ea2565b6000806040838503121561300b578081fd5b61301483612ea2565b915061302260208401612ea2565b90509250929050565b600080600080600060a08688031215613042578081fd5b61304b86612ea2565b945061305960208701612ea2565b9350604086013567ffffffffffffffff80821115613075578283fd5b61308189838a01612f39565b94506060880135915080821115613096578283fd5b6130a289838a01612f39565b935060808801359150808211156130b7578283fd5b506130c488828901612fa0565b9150509295509295909350565b600080600080600060a086880312156130e8578081fd5b6130f186612ea2565b94506130ff60208701612ea2565b93506040860135925060608601359150608086013567ffffffffffffffff811115613128578182fd5b6130c488828901612fa0565b60008060408385031215613146578182fd5b61314f83612ea2565b915060208301358015158114613163578182fd5b809150509250929050565b60008060408385031215613180578182fd5b61318983612ea2565b946020939093013593505050565b6000806000606084860312156131ab578081fd5b6131b484612ea2565b95602085013595506040909401359392505050565b600080604083850312156131db578182fd5b823567ffffffffffffffff808211156131f2578384fd5b6131fe86838701612ebe565b93506020850135915080821115613213578283fd5b5061322085828601612f39565b9150509250929050565b600080600080600080600080610100898b031215613246578586fd5b883567ffffffffffffffff8082111561325d578788fd5b6132698c838d01612ebe565b995060208b013591508082111561327e578788fd5b61328a8c838d01612f39565b985061329860408c01612fbf565b975060608b01359150808211156132ad578485fd5b506132ba8b828c01612fa0565b9550506080890135935060a089013592506132d760c08a01612fce565b91506132e560e08a01612fce565b90509295985092959890939650565b600060208284031215613305578081fd5b5035919050565b6000806040838503121561331e578182fd5b8235915061302260208401612ea2565b60006020828403121561333f578081fd5b8135612bf281613a86565b60006020828403121561335b578081fd5b8151612bf281613a86565b600060208284031215613377578081fd5b813567ffffffffffffffff81111561338d578182fd5b8201601f8101841361339d578182fd5b6133ac84823560208401612e44565b949350505050565b600080604083850312156133c6578182fd5b50508035926020909101359150565b6000815180845260208085019450808401835b83811015613404578151875295820195908201906001016133e8565b509495945050505050565b600081518084526134278160208601602086016138ee565b601f01601f19169290920160200192915050565b6003811061345957634e487b7160e01b600052602160045260246000fd5b9052565b7f416363657373436f6e74726f6c3a206163636f756e74200000000000000000008152600083516134958160178501602088016138ee565b7001034b99036b4b9b9b4b733903937b6329607d1b60179184019182015283516134c68160288401602088016138ee565b01602801949350505050565b6001600160a01b0386811682528516602082015260a0604082018190526000906134fe908301866133d5565b828103606084015261351081866133d5565b90508281036080840152613524818561340f565b98975050505050505050565b6001600160a01b03868116825285166020820152604081018490526060810183905260a06080820181905260009061356a9083018461340f565b979650505050505050565b6001600160a01b03831681526040602082018190526000906133ac9083018461340f565b6001600160a01b03898116825260208083018a90526101006040840181905289519084018190526000926101208501928b810192855b818110156135ed5784518416865294820194938201936001016135cf565b5050505050828103606084015261360481896133d5565b915050613614608083018761343b565b8460a083015261362960c083018560ff169052565b60ff831660e08301529998505050505050505050565b602081526000612bf260208301846133d5565b60408152600061366560408301856133d5565b828103602084015261367781856133d5565b95945050505050565b60c0810161368e828761343b565b60018060a01b03851660208301528360408301528251606083015260ff602084015116608083015260ff60408401511660a083015295945050505050565b602081526000612bf2602083018461340f565b6040815260006136f2604083018561340f565b8281036020840152613677818561340f565b60208082526028908201527f455243313135353a204552433131353552656365697665722072656a656374656040820152676420746f6b656e7360c01b606082015260800190565b6020808252602c908201527f796f7520646f6e2774206861766520616e79206d6f6e657920696e207468652060408201526b189a59191a5b99c81c1bdbdb60a21b606082015260800190565b60208082526025908201527f455243313135353a207472616e7366657220746f20746865207a65726f206164604082015264647265737360d81b606082015260800190565b6020808252602a908201527f455243313135353a20696e73756666696369656e742062616c616e636520666f60408201526939103a3930b739b332b960b11b606082015260800190565b6020808252818101527f4f776e61626c653a2063616c6c6572206973206e6f7420746865206f776e6572604082015260600190565b600067ffffffffffffffff821115613876576138766139ce565b5060051b60200190565b60008219821115613893576138936139b8565b500190565b6000826138b357634e487b7160e01b81526012600452602481fd5b500490565b60008160001904831182151516156138d2576138d26139b8565b500290565b6000828210156138e9576138e96139b8565b500390565b60005b838110156139095781810151838201526020016138f1565b83811115613918576000848401525b50505050565b60008161392d5761392d6139b8565b506000190190565b600181811c9082168061394957607f821691505b6020821081141561396a57634e487b7160e01b600052602260045260246000fd5b50919050565b601f8201601f1916810167ffffffffffffffff81118282101715613996576139966139ce565b6040525050565b60006000198214156139b1576139b16139b8565b5060010190565b634e487b7160e01b600052601160045260246000fd5b634e487b7160e01b600052604160045260246000fd5b600060033d11156139f957600481823e5160e01c5b90565b600060443d1015613a0a5790565b6040516003193d81016004833e81513d67ffffffffffffffff8160248401118184111715613a3a57505050505090565b8285019150815181811115613a525750505050505090565b843d8701016020828501011115613a6c5750505050505090565b613a7b60208286010187613970565b509095945050505050565b6001600160e01b03198116811461092257600080fdfea2646970667358221220a3679743ca4ff9fcf29ccb20e6ad9150682725b169f57d0962a455174903b75e64736f6c634300080400334465706c6f79696e67206120536f6e67206f7220416c62756d20436f6e74726163742077697468207572693a",
  "linkReferences": {},
  "deployedLinkReferences": {}
}